:020000040800F2
:100000000000022011100008A90F0008AB0F000823
:10001000AD0F0008AF0F0008B10F0008000000008E
:10002000000000000000000000000000B30F000806
:10003000B50F000800000000B70F0008B90F000856
:1000400061100008611000086110000861100008CC
:1000500061100008611000086110000861100008BC
:1000600061100008611000086110000861100008AC
:10007000611000086110000861100008611000089C
:10008000611000086110000861100008611000088C
:10009000611000086110000861100008611000087C
:1000A000611000086110000861100008611000086C
:1000B000611000086110000861100008611000085C
:1000C000611000086110000861100008611000084C
:1000D000611000086110000861100008611000083C
:1000E000611000086110000861100008611000082C
:1000F000611000086110000861100008611000081C
:10010000611000086110000861100008611000080B
:1001100061100008611000086110000861100008FB
:1001200061100008611000086110000861100008EB
:1001300061100008611000086110000861100008DB
:1001400061100008611000086110000861100008CB
:1001500061100008611000086110000861100008BB
:1001600061100008611000086110000861100008AB
:100170006110000861100008611000080000000014
:08018000611000086110000885
:1001880010B5054C237833B9044B13B10448AFF3C9
:1001980000800123237010BD0C0000200000000027
:1001A800AC10000808B5034B1BB103490348AFF373
:1001B800008008BD0000000010000020AC100008FE
:1001C80053B94AB9002908BF00281CBF4FF0FF31B6
:1001D8004FF0FF3000F072B9ADF1080C6DE904CEB4
:1001E80000F006F8DDF804E0DDE9022304B070470A
:1001F8002DE9F047089E04468846002B4BD18A42D9
:10020800154667D9B2FA82F24AB1C2F1200701FA5B
:1002180002F320FA07F7954047EA030894404FEAAB
:10022800154E230CB8FBFEF71FFA85FC0EFB17884A
:1002380043EA084307FB0CF1994209D9EB1807F187
:10024800FF3080F01B81994240F21881023F2B4415
:100258005B1AA4B2B3FBFEF00EFB103344EA03446E
:1002680000FB0CFCA44509D92C1900F1FF3380F0E0
:100278000781A44540F2048102382C4440EA074033
:10028800A4EB0C0400271EB1D4400023C6E90043A8
:100298003946BDE8F0878B4209D9002E00F0EB8083
:1002A8000027C6E9000138463946BDE8F087B3FAA9
:1002B80083F7002F47D18B4202D3824200F2FA80A3
:1002C800841A61EB030301209846002EE0D0C6E9AA
:1002D8000048DDE702B9FFDEB2FA82F2002A40F0F8
:1002E8008F80491B4FEA154E1FFA85F80127B1FB8D
:1002F800FEFC230C0EFB1C1143EA014308FB0CF126
:10030800994207D9EB180CF1FF3002D2994200F25A
:10031800CD808446591AA3B2B1FBFEF00EFB10142F
:1003280043EA044408FB00F8A04507D92C1900F15A
:10033800FF3302D2A04500F2B6801846A4EB0804A9
:1003480040EA0C409FE7C7F1200CBB4022FA0CFEA4
:100358004EEA030E01FA07F420FA0CF521FA0CF321
:100368004FEA1E482543B3FBF8F92C0C08FB193358
:100378001FFA8EFA44EA034309FB0AF49C4202FA84
:1003880007F200FA07F10BD91EEB030309F1FF305E
:1003980080F087809C4240F28480A9F1020973446E
:1003A8001B1BADB2B3FBF8F008FB103345EA03445E
:1003B80000FB0AFAA24508D91EEB040400F1FF333A
:1003C8006BD2A24569D90238744440EA0940A0FBBF
:1003D8000289A4EB0A044C45C2464B4654D351D07B
:1003E800002E69D0B1EB0A0564EB030404FA0CFC97
:1003F800FD40FC404CEA0505C6E90054002747E7E4
:10040800C2F1200320FA03F7954001FA02F021FA1D
:1004180003F34FEA154E3843010CB3FBFEF71FFAFE
:1004280085F80EFB173341EA034107FB08F38B42BB
:1004380004FA02F407D9691807F1FF3C2FD28B425E
:100448002DD9023F2944CB1A81B2B3FBFEF00EFB33
:10045800103341EA034100FB08F38B4207D96918BE
:1004680000F1FF3C17D28B4215D902382944C91A2A
:1004780040EA07473BE73746304609E70746E7E6DD
:100488001846FBE64145ABD2B8EB020A69EB0E020F
:1004980001381346A4E76046E9E7184695E767463A
:1004A800D1E781467CE702382C4447E7ACF1020CDF
:1004B8002B442FE7384608E73746E9E6704700BF80
:1004C80010B504460E4B18784FF47A73B3FBF0F36B
:1004D8000C4A1068B0FBF3F000F09CF868B90F2CD8
:1004E80001D901200AE0002221464FF0FF3000F038
:1004F8005DF8034B5C60002000E0012010BD00BFE8
:10050800000000200800002008B50B4B1A6842F4D0
:1005180000721A601A6842F480621A601A6842F41B
:1005280080721A60032000F02FF80020FFF7C8FF40
:1005380000F0ECFC002008BD003C0240034A1168B2
:10054800034B1B780B441360704700BF2800002042
:1005580000000020014B1868704700BF28000020E9
:1005680038B50446FFF7F6FF0546B4F1FF3F02D061
:10057800044B1B781C44FFF7EDFF401BA042FAD345
:1005880038BD00BF00000020074AD36823F4E063A9
:100598001B041B0C000200F4E060184340F0BF602D
:1005A80040F40030D060704700ED00E030B4174BE5
:1005B800DB68C3F30223C3F10704042C28BF042417
:1005C8001D1D062D18D9033B4FF0FF3505FA04F41D
:1005D80021EA0401994005FA03F322EA03031943C7
:1005E80000280BDB0901C9B200F1604000F5614049
:1005F80080F8001330BC70470023E5E700F00F00D7
:100608000901C9B2024B1954F4E700BF00ED00E03C
:1006180014ED00E00138B0F1807F0AD2064B586033
:10062800064AF02182F823100020986007221A60F9
:1006380070470120704700BF10E000E000ED00E0C7
:10064800042805D0054A136823F004031360704793
:10065800024A136843F004031360704710E000E097
:10066800704708B5FFF7FCFF08BD000000230F2BFB
:1006780000F2D780F0B482B039E0072200E000220F
:10068800B2403A430234674E46F82420664A14685A
:10069800EA4302EA04064F6817F4803F01D045EAAE
:1006A8000406614C2660646802EA04064F6817F481
:1006B800003F01D045EA04065B4C6660A46802EA84
:1006C80004064F6817F4801F01D045EA0406564C0B
:1006D800A660E46822404E6816F4001F01D045EA7F
:1006E8000402514CE26001330F2B00F29780012283
:1006F8009A400C6804EA0205AA42F4D14C68022C1C
:1007080001D0122C10D1DE08083650F826C003F0AC
:100718000704A7000F24BC402CEA040C0C69BC4059
:1007280044EA0C0440F8264004685F000326BE40F3
:10073800F64306EA040C4C6804F00304BC4044EA9F
:100748000C0404604C6804F1FF3CBCF1010F03D9B0
:10075800112C01D0122C10D1846806EA040CCC6844
:10076800BC4044EA0C048460446824EA02024C68F1
:10077800C4F300149C4014434460C26816408A685D
:10078800BA403243C2604A6812F0805FABD00022A0
:100798000192264A546C44F480445464526C02F426
:1007A80080420192019A9C08A61C1E4A52F82670A3
:1007B80003F0030296000F22B24027EA02071C4A00
:1007C80090423FF45CAF02F5806290421AD002F585
:1007D8008062904218D002F58062904216D002F5ED
:1007E8008062904214D002F58062904212D002F5E5
:1007F8008062904210D002F5806290423FF43DAF93
:1008080008223DE701223BE7022239E7032237E7C6
:10081800042235E7052233E7062231E702B0F0BCAF
:100828007047704700380140003C014000380240E2
:100838000000024012B90904816170478161704764
:100848004369594041617047002800F0BB8170B589
:1008580082B00446036813F0010F3BD0A74B9B6896
:1008680003F00C03042B2CD0A44B9B6803F00C035F
:10087800082B21D06368B3F5803F4FD0B3F5A02F84
:1008880052D09E4B1A6822F480321A601A6822F4F9
:1008980080221A606368002B50D0FFF75BFE054684
:1008A800964B1B6813F4003F14D1FFF753FE401B0F
:1008B8006428F5D903208AE1904B5B6813F4800F14
:1008C800D8D08E4B1B6813F4003F03D06368002B0D
:1008D80000F07A81236813F0020F55D0874B9B688C
:1008E80013F00C0F3ED0854B9B6803F00C03082BCC
:1008F80033D0E368002B68D0814B01221A60FFF7E0
:1009080029FE05467D4B1B6813F0020F54D1FFF7F3
:1009180021FE401B0228F5D9032058E1774A1368C5
:1009280043F480331360B5E7744B1A6842F48022AD
:100938001A601A6842F480321A60ABE7FFF70AFEC1
:1009480005466E4B1B6813F4003FC3D0FFF702FE49
:10095800401B6428F5D9032039E1684B5B6813F420
:10096800800FC6D1654B1B6813F0020F04D0E368F3
:10097800012B01D001202AE1604A136823F0F80313
:10098800216943EAC1031360236813F0080F40D0BC
:10099800636963B35B4B01221A60FFF7DBFD054611
:1009A800564B5B6F13F0020F33D1FFF7D3FD401B9B
:1009B8000228F5D903200AE1504A136823F0F80306
:1009C800216943EAC1031360DEE74D4B00221A6038
:1009D800FFF7C0FD0546494B1B6813F0020FD3D043
:1009E800FFF7B8FD401B0228F5D90320EFE0454B7F
:1009F80000221A60FFF7AEFD0546404B5B6F13F00F
:100A0800020F06D0FFF7A6FD401B0228F5D90320E8
:100A1800DDE0236813F0040F79D0384B1B6C13F01A
:100A2800805F33D100230193344B1A6C42F080521B
:100A38001A641B6C03F080530193019B0125324B10
:100A48001B6813F4807F23D0A368012B34D0052BB7
:100A580038D02A4B1A6F22F001021A671A6F22F057
:100A680004021A67A368002B36D0FFF773FD064609
:100A7800224B1B6F13F0020F48D1FFF76BFD801B51
:100A880041F288339842F3D90320A0E00025D6E745
:100A98001D4A136843F480731360FFF75BFD064635
:100AA800194B1B6813F4807FCED1FFF753FD801BD1
:100AB8000228F5D903208AE0104A136F43F0010396
:100AC8001367CFE70D4B1A6F42F004021A671A6FCB
:100AD80042F001021A67C5E7FFF73CFD0646074BDF
:100AE8001B6F13F0020F11D0FFF734FD801B41F28A
:100AF80088339842F3D9032069E000BF00380240E8
:100B080000004742800E474200700040E5B9A369E3
:100B1800002B5BD0304A926802F00C02082A58D0A9
:100B2800022B17D02D4B00221A60FFF713FD044645
:100B3800294B1B6813F0007F42D0FFF70BFD001B09
:100B48000228F5D9032042E0234A136C23F080538E
:100B58001364DCE7214B00221A60FFF7FBFC054613
:100B68001D4B1B6813F0007F06D0FFF7F3FC401BFA
:100B78000228F5D903202AE0E369226A1343626A4E
:100B880043EA8213A26A5208013A43EA0243E26A3C
:100B980043EA0263104A5360104B01221A60FFF7C0
:100BA800D9FC04460C4B1B6813F0007F06D1FFF7F5
:100BB800D1FC001B0228F5D9032008E0002006E03C
:100BC800002004E001207047012000E0002002B06E
:100BD80070BD0120FBE700BF0038024060004742BB
:100BE800264B9B6803F00C03042B44D0082B01D040
:100BF800234870472DE9F04B204B5A6802F03F021A
:100C08005B6813F4800F13D01C4B5968C1F388112B
:100C180000231C48A1FB0001FFF7D2FA174B5B68C1
:100C2800C3F3014301335B00B0FBF3F0BDE8F08B85
:100C3800124B5B68C3F388131E4600275C0100252E
:100C4800E41A65EB0705A90141EA9461A001001BBC
:100C580061EB0501CB0043EA5073C400A01943EBD4
:100C680007018B0243EA9053840220461946002369
:100C7800FFF7A6FAD2E70348704700BF00380240E2
:100C88000024F40040787D01002800F09D8070B5B4
:100C980004464F4B1B6803F00F038B4209D2CBB2BB
:100CA8004B4A1370136803F00F038B4201D00120E5
:100CB80070BD236813F0020F17D013F0040F04D08F
:100CC800444A936843F4E0539360236813F0080F91
:100CD80004D0404A936843F4604393603D4A936864
:100CE80023F0F003A068034393600D46236813F0D4
:100CF800010F32D06368012B21D09A1E012A25D911
:100D0800344A126812F0020F60D032498A6822F021
:100D1800030213438B60FFF71DFC06462D4B9B68AF
:100D280003F00C036268B3EB820F16D0FFF712FCD6
:100D3800801B41F288339842F0D90320B8E7254A4E
:100D4800126812F4003FE0D10120B1E7214A12688D
:100D580012F0007FD9D10120AAE71D4B1B6803F0D0
:100D68000F03AB4209D9EAB2194B1A701B6803F09A
:100D78000F03AB4201D001209AE7236813F0040F58
:100D880006D0144A936823F4E053E1680B43936058
:100D9800236813F0080F07D00E4A936823F46043C2
:100DA800216943EAC1039360FFF71AFF094B9B6867
:100DB800C3F30313084AD35CD840084B18600020DB
:100DC800FFF77EFB002073E70120704701206FE7E3
:100DD800003C024000380240C4100008080000200F
:100DE800014B1868704700BF0800002030B587B075
:100DF800002400940E4B1A6B42F008021A631B6B16
:100E080003F008030093009B0A4D22464FF47041FB
:100E18002846FFF70FFD4FF4704301930123029317
:100E28000394049401A92846FFF720FC07B030BDBD
:100E380000380240000C0240FEE7000000B595B003
:100E480000230193234A116C41F080511164126C04
:100E580002F080520192019A02931F4A116841F4EC
:100E680080411160126802F480420292029A0222C2
:100E7800089201220B9210220C920E9308A8FFF7F9
:100E8800E3FCF0B90F230393002104910591069127
:100E9800079103A8FFF7F8FEB8B9FFF7A1FF0F4BBA
:100EA800A3FB00308009FFF7B5FB0420FFF7C8FB60
:100EB800002211464FF0FF30FFF778FB15B05DF8C0
:100EC80004FB8B210648FFF7B7FF99210448FFF779
:100ED800B3FF00BF0038024000700040D34D6210DD
:100EE800DC10000808B5FFF70FFBFFF7A7FFFFF7B7
:100EF8007DFF4FF470410448FFF7A2FC4FF47A706D
:100F0800FFF72EFBF5E700BF000C024010B582B0DA
:100F180000240094214B5A6C42F480425A645A6C63
:100F280002F480420092009A01941A6C42F08052B6
:100F38001A641B6C03F080530193019B0320FFF795
:100F480023FB224621466FF00B00FFF72FFB2246BA
:100F580021466FF00A00FFF729FB224621466FF071
:100F68000900FFF723FB224621466FF00400FFF734
:100F78001DFB224621466FF00300FFF717FB2246B0
:100F880021466FF00100FFF711FB224621464FF082
:100F9800FF30FFF70BFB02B010BD00BF0038024066
:100FA8007047FEE7FEE7FEE7FEE7704770477047C9
:100FB80008B5FFF7C3FAFFF754FB08BD0F49D1F88E
:100FC800883043F47003C1F888300D4B1A6842F03A
:100FD80001021A60002098601A6822F0847222F4D4
:100FE80080321A60074A5A601A6822F480221A600E
:100FF800D8604FF000638B60704700BF00ED00E0E1
:101008000038024010300024DFF834D0002103E01B
:101018000C4B5B58435004310B480C4B42189A4216
:10102800F6D30B4A02E0002342F8043B094B9A42EC
:10103800F9D3FFF7C3FF00F011F8FFF753FF70472C
:1010480000000220FC100008000000200C00002016
:101058000C0000202C000020FEE7000070B50D4EAB
:101068000D4CA41BA4100025A54209D10B4E0C4C15
:1010780000F018F8A41BA4100025A54205D170BDE6
:1010880056F8253098470135EEE756F82530984749
:101098000135F2E7F4100008F4100008F410000815
:1010A800F8100008F8B500BFF8BC08BC9E467047A9
:0C10B800F8B500BFF8BC08BC9E467047AD
:1010C40000000000000000000102030406070809F4
:1010D40000000000010203042E2E2F5372632F6DB3
:0810E40061696E2E630000003B
:0810EC000CF1FF7F0100000080
:0410F400AD01000842
:0410F8008901000862
:0C10FC0001000000100000000024F400BF
:0400000508001011CE
:00000001FF
