:020000040800F2
:1000000000000220FD430008B13E0008B33E000896
:10001000B53E0008B73E0008B93E000800000000E9
:10002000000000000000000000000000BB3E0008CF
:10003000BD3E000800000000BF3E0008C13E0008B1
:100040004D4400084D4400084D4400084D4400084C
:100050004D4400084D4400084D4400084D4400083C
:100060004D4400084D4400084D4400084D4400082C
:100070004D4400084D4400084D4400084D4400081C
:100080004D4400084D4400084D4400084D4400080C
:100090004D4400084D4400084D4400084D440008FC
:1000A0004D4400084D4400084D4400084D440008EC
:1000B0004D4400084D4400084D4400084D440008DC
:1000C0004D4400084D4400084D4400084D440008CC
:1000D0004D4400084D4400084D4400084D440008BC
:1000E0004D4400084D4400084D4400084D440008AC
:1000F0004D4400084D4400084D4400084D4400089C
:100100004D4400084D4400084D4400084D4400088B
:100110004D4400084D4400084D4400084D4400087B
:10012000CD3E00084D4400084D4400084D440008F1
:100130004D4400084D4400084D4400084D4400085B
:100140004D4400084D4400084D440008DD3E0008C1
:100150004D4400084D4400084D4400084D4400083B
:100160004D4400084D4400084D4400084D4400082B
:100170004D4400084D4400084D44000800000000B4
:080180004D4400084D44000845
:1001900010B5054C237833B9044B13B10448AFF3C1
:1001A00000800123237010BDC40100200000000066
:1001B000EC4C000808B5034B1BB103490348AFF3EF
:1001C000008008BD00000000C8010020EC4C0008C1
:1001D00053B94AB9002908BF00281CBF4FF0FF31AE
:1001E0004FF0FF3000F072B9ADF1080C6DE904CEAC
:1001F00000F006F8DDF804E0DDE9022304B0704702
:100200002DE9F047089E04468846002B4BD18A42D0
:10021000154667D9B2FA82F24AB1C2F1200701FA53
:1002200002F320FA07F7954047EA030894404FEAA3
:10023000154E230CB8FBFEF71FFA85FC0EFB178842
:1002400043EA084307FB0CF1994209D9EB1807F17F
:10025000FF3080F01B81994240F21881023F2B440D
:100260005B1AA4B2B3FBFEF00EFB103344EA034466
:1002700000FB0CFCA44509D92C1900F1FF3380F0D8
:100280000781A44540F2048102382C4440EA07402B
:10029000A4EB0C0400271EB1D4400023C6E90043A0
:1002A0003946BDE8F0878B4209D9002E00F0EB807B
:1002B0000027C6E9000138463946BDE8F087B3FAA1
:1002C00083F7002F47D18B4202D3824200F2FA809B
:1002D000841A61EB030301209846002EE0D0C6E9A2
:1002E0000048DDE702B9FFDEB2FA82F2002A40F0F0
:1002F0008F80491B4FEA154E1FFA85F80127B1FB85
:10030000FEFC230C0EFB1C1143EA014308FB0CF11D
:10031000994207D9EB180CF1FF3002D2994200F252
:10032000CD808446591AA3B2B1FBFEF00EFB101427
:1003300043EA044408FB00F8A04507D92C1900F152
:10034000FF3302D2A04500F2B6801846A4EB0804A1
:1003500040EA0C409FE7C7F1200CBB4022FA0CFE9C
:100360004EEA030E01FA07F420FA0CF521FA0CF319
:100370004FEA1E482543B3FBF8F92C0C08FB193350
:100380001FFA8EFA44EA034309FB0AF49C4202FA7C
:1003900007F200FA07F10BD91EEB030309F1FF3056
:1003A00080F087809C4240F28480A9F10209734466
:1003B0001B1BADB2B3FBF8F008FB103345EA034456
:1003C00000FB0AFAA24508D91EEB040400F1FF3332
:1003D0006BD2A24569D90238744440EA0940A0FBB7
:1003E0000289A4EB0A044C45C2464B4654D351D073
:1003F000002E69D0B1EB0A0564EB030404FA0CFC8F
:10040000FD40FC404CEA0505C6E90054002747E7DB
:10041000C2F1200320FA03F7954001FA02F021FA15
:1004200003F34FEA154E3843010CB3FBFEF71FFAF6
:1004300085F80EFB173341EA034107FB08F38B42B3
:1004400004FA02F407D9691807F1FF3C2FD28B4256
:100450002DD9023F2944CB1A81B2B3FBFEF00EFB2B
:10046000103341EA034100FB08F38B4207D96918B6
:1004700000F1FF3C17D28B4215D902382944C91A22
:1004800040EA07473BE73746304609E70746E7E6D5
:100490001846FBE64145ABD2B8EB020A69EB0E0207
:1004A00001381346A4E76046E9E7184695E7674632
:1004B000D1E781467CE702382C4447E7ACF1020CD7
:1004C0002B442FE7384608E73746E9E6704700BF78
:1004D00010F8012B11F8013B012A28BF9A42F7D0EE
:1004E000D01A7047034613F8012B002AFBD1181AC3
:1004F000013870470000000000000000000000000C
:1005000001F0FF01102A2BDB10F0070F08D010F8C4
:10051000013B013A8B422DD010F0070F42B3F6D1C8
:10052000F0B441EA012141EA014122F007047FF0E1
:1005300000070023F0E80256083C85EA010586EA38
:10054000010685FA47F5A3FA87F586FA47F6A5FA74
:1005500087F68EB9EED1F0BC01F0FF0102F0070280
:1005600032B110F8013B013A83EA010313B1F8D12B
:100570000020704701387047002D06BF354603380C
:10058000073815F0010F07D1013015F4807F02BF45
:10059000013015F4C03F0130F0BC0138704700BF96
:1005A00010B504460E4B18784FF47A73B3FBF0F392
:1005B0000C4A1068B0FBF3F000F0A4FB68B90F2CF4
:1005C00001D901200AE0002221464FF0FF3000F05F
:1005D00059FB034B5C60002000E0012010BD00BF10
:1005E000000000201801002008B50B4B1A6842F4E7
:1005F00000721A601A6842F480621A601A6842F443
:1006000080721A60032000F02BFB0020FFF7C8FF68
:1006100003F09AFB002008BD003C0240034A116829
:10062000034B1B780B441360704700BFF0010020A0
:1006300000000020014B1868704700BFF001002047
:1006400038B50446FFF7F6FF0546B4F1FF3F02D088
:10065000044B1B781C44FFF7EDFF401BA042FAD36C
:1006600038BD00BF00000020494B5A6822F44032D8
:100670005A605A6841680A435A600268536823F412
:100680008073536002685368016943EA0123536031
:100690000268536823F040735360026853688168AE
:1006A0000B4353600268936823F40063936002680D
:1006B0009368C1680B439360826A364B9A4249D073
:1006C0000268936823F07063936002689368816A9C
:1006D0000B4393600268936823F040539360026871
:1006E0009368C16A0B4393600268936823F0020326
:1006F000936002689368816943EA41039360036AE7
:10070000002B32D10268536823F4006353600268FF
:10071000D36A23F47003D3620168CB6AC269013AD9
:1007200043EA0253CB620268936823F40073936038
:1007300002689368016B43EA4123936002689368FF
:1007400023F48063936002689368416943EA8123DC
:10075000936070470268936823F070639360026847
:10076000936823F040539360BEE70268536843F4F4
:10077000006353600268536823F460435360016868
:100780004B68426A013A43EA42334B60BFE700BF1D
:10079000002301400100000F30B310B50446036C84
:1007A00043B1236C13F0100F0AD00120002384F80A
:1007B0003C3010BD436480F83C3003F00FFBF0E7A1
:1007C000236C23F4885323F0020343F002032364D1
:1007D0002046FFF749FF00206064236C23F00303E9
:1007E00043F001032364E1E70120704703689A683E
:1007F00012F4806F03D09B6813F4807F1CD170B516
:100800000D460446FFF716FF064623681A6812F0E5
:10081000020F1AD1B5F1FF3FF7D025B1FFF70AFF5C
:10082000801BA842F1D9236C43F004032364002306
:1008300084F83C3003202DE0036C43F02003036474
:10084000002380F83C30012070476FF012021A60DC
:10085000236C43F40073236423689A6812F0405FAA
:1008600017D1A269BAB9DA6A12F4700F03D09B6883
:1008700013F4806F11D1236C23F480732364236CF1
:1008800013F4805F0BD1236C43F001032364002039
:1008900000E0002070BD0020FCE70020FAE7002007
:1008A000F8E7000030B583B00023019390F83C30A6
:1008B000012B00F08180012380F83C300468A3689C
:1008C00013F0010F13D1A36843F00103A3603F4B62
:1008D0001C683F4BA3FB0434A40C04EB44040194B8
:1008E00002E0019C013C0194019C002CF9D10368B9
:1008F0009C6814F0010F61D0046C24F4E06424F0CF
:10090000010444F4807404645B6813F4806F05D0C0
:10091000036C23F4405343F480530364036C13F4D7
:10092000805F36D0436C23F00603436413460446CD
:10093000002280F83C20826B2648D063A26B2648B8
:100940001064A26B2548D06422686FF0220010600A
:100950002568686840F0806068602568A86840F491
:100960008070A86020680A4600F14C01A06B00F07E
:100970005BFB1B4B5B6813F01F0F0DD123689A685C
:1009800012F0405F1DD19A6842F080429A600020C8
:1009900015E000234364C9E72368124A934201D05B
:1009A00000200CE09A6812F0405F0CD19A6842F087
:1009B00080429A60002002E0022000E0002003B0A4
:1009C00030BD0020FBE70020F9E700BF1801002040
:1009D00083DE1B43490A0008AD0A0008B90A000873
:1009E000002301400020014090F83C30012B28D02A
:1009F00010B50446012380F83C300268936823F068
:100A00000103936003689A6812F0010F04D000207C
:100A1000002384F83C3010BD9A6822F480729A60FA
:100A2000806B00F03BFB2268536823F080635360C7
:100A3000236C23F4885323F0010343F00103236460
:100A4000E6E702207047704708B5836B1A6C12F016
:100A5000500F03D09B6BDB6C984708BD1A6C42F4B7
:100A600000721A641A68916811F0405F19D199698F
:100A7000B9B9D16A11F4700F03D0916811F4806F85
:100A80000FD1516821F0200151601A6C22F480725C
:100A90001A641A6C12F4805F03D11A6C42F00102DE
:100AA0001A641846FFF7CFFFD7E7704708B5806B89
:100AB000FFF7FBFF08BD704708B5806B4023036458
:100AC000436C43F004034364FFF7F5FF08BD0000E7
:100AD00030B482B00023019390F83C30012B00F039
:100AE000B780012380F83C300B68092B3ED905689C
:100AF000EA689BB203EB43031E3B072404FA03F3AB
:100B000022EA0303EB600568EA688C680B8803EB54
:100B100043031E3B04FA03F31343EB604B68062BBD
:100B20003AD805686A6B03EB8303053B1F2404FA7C
:100B300003F322EA03036B6305686A6B4B6803EBFC
:100B40008303053B0C8804FA03F313436B630268C9
:100B5000404B9A4250D002683E4B9A4255D00023F7
:100B600080F83C30184602B030BC704705682A69EE
:100B70009BB203EB4303072404FA03F322EA0303C3
:100B80002B6105682A698C680B8803EB430304FA20
:100B900003F313432B61C1E70C2B16D805682A6BAE
:100BA00003EB8303233B1F2404FA03F322EA03032A
:100BB0002B6305682A6B4B6803EB8303233B0C888C
:100BC00004FA03F313432B63C1E70568EA6A03EBF6
:100BD0008303413B1F2404FA03F322EA0303EB627D
:100BE0000568EA6A4B6803EB8303413B0C8804FA0F
:100BF00003F31343EB62AAE70B68122BABD1164A3F
:100C0000536843F480035360A5E70B68103B012B46
:100C1000A5D8114A536843F4000353600B68102BA6
:100C20009DD10E4B1B6802F1467202F52E3202F284
:100C30008332A2FB03239B0C03EB83035A00019234
:100C400002E0019B013B0193019B002BF9D186E758
:100C5000022088E700200140002301401801002005
:100C6000074AD36823F4E0631B041B0C000200F462
:100C7000E060184340F0BF6040F40030D06070473F
:100C800000ED00E030B4174BDB68C3F30223C3F17F
:100C90000704042C28BF04241D1D062D18D9033B6E
:100CA0004FF0FF3505FA04F421EA0401994005FAF2
:100CB00003F322EA0303194300280BDB0901C9B23D
:100CC00000F1604000F5614080F8001330BC7047CF
:100CD0000023E5E700F00F000901C9B2024B1954E7
:100CE000F4E700BF00ED00E014ED00E000F01F02AB
:100CF000400901239340024A42F82030704700BF68
:100D000000E100E00138B0F1807F0AD2064B586064
:100D1000064AF02182F823100020986007221A600A
:100D200070470120704700BF10E000E000ED00E0D8
:100D3000042805D0054A136823F0040313607047A4
:100D4000024A136843F004031360704710E000E0A8
:100D5000704708B5FFF7FCFF08BD70B110B5044639
:100D6000037933B102232371002020610123237111
:100D700010BD437103F078F8F4E701207047437920
:100D8000012B31D010B40123437102220271046897
:100D900022688B4013432360B1B90268116813685D
:100DA00003F0380311F0040F01D0382B07D00123D2
:100DB00003710023437118465DF8044B7047536874
:100DC00043F001035360F2E702681168136803F40B
:100DD000601311F4802FEAD0B3F5601FE7D1536898
:100DE00043F002035360E2E7022070474379012B8E
:100DF0001FD070B401254571022303710668336862
:100E000040F6FE74944023EA04040B6849680B43DF
:100E100093402343336004682368C02101FA02F23F
:100E200023EA02022260057100234371184670BC58
:100E300070470220704710B483B00024019400680A
:100E4000019051B101990A4414320192019A136040
:100E5000002003B05DF8044B704701990A44083242
:100E60000192F3E730B405682C6824F480242C60E8
:100E7000046863608368402B05D003689960036849
:100E8000DA6030BC704703689A600368D960F8E79D
:100E90000268D3B2103B0B49A1FB03131B090A499B
:100EA000C95CC165032B06D822F47F7222F00302CD
:100EB0008265806D704722F47F7222F00302043253
:100EC0008265F6E7ABAAAAAA044D0008836A826984
:100ED00092B9012B0AD01BB1022B01D00020704720
:100EE000C36A13F0807F2CD100207047C36AB3F12E
:100EF000C07F28D000207047B2F5005F05D0022BDC
:100F000029D9032B15D000207047032B03D8DFE825
:100F100003F01C041C0A00207047C36A13F0807F92
:100F200015D100207047C36AB3F1C07F11D00020F3
:100F30007047C36A13F0807F01D001207047002002
:100F40007047012070470120704701207047012041
:100F500070470120704701207047000070B50446BB
:100F6000FFF768FB002C5BD00546002384F8343083
:100F7000022384F835302268136823F001031360DC
:100F800023681A6812F0010F0AD0FFF753FB401BC9
:100F90000528F5D920236365032084F8350070BD4A
:100FA0001A68204810406168A2680A43E1680A4351
:100FB00021690A4361690A43A1690A43E1690A4355
:100FC000216A0A430243616A04291ED01A60266816
:100FD000756925F00705636A1D43042B07D1A36AD1
:100FE0001D43E36A1BB12046FFF770FF90B975619E
:100FF0002046FFF74DFFE26D3F23934083600020C2
:101000006065012384F83530C9E7E16A206B01434C
:101010000A43DBE740236365012084F83500BEE71F
:101020000120BCE73F8010F038B5856D90F8344062
:10103000012C31D0012480F8344090F83540E4B2DE
:10104000012C04D0002380F83430022038BD04463F
:10105000022084F83500002060652046FFF702FF7B
:10106000E26D3F239340AB602268136843F01603A0
:1010700013602268536943F080035361236C23B1EA
:101080002268136843F0080313602268136843F072
:10109000010313600020D9E70220D7E770B50446AA
:1010A000866DFFF7C7FA94F83530DBB2022B06D015
:1010B00080236365002384F83430012070BD054629
:1010C0002268136823F0160313602268536923F023
:1010D00080035361236CE3B12268136823F0080393
:1010E00013602268136823F00103136023681B68F0
:1010F00013F0010F11D0FFF79DFA401B0528F5D919
:1011000020236365002384F83430032084F83500FD
:10111000D4E7A36C002BDFD1E3E7E26D3F239340DC
:10112000B360002084F83400012384F83530C5E72B
:10113000F0B583B0044600230193724B1D68724BD7
:10114000A3FB0535AD0A876D3E68C26D0823934049
:10115000334210D003681A6812F0040F0BD01A68DB
:1011600022F004021A60C26D08239340BB60436DF5
:1011700043F001034365E26D01239340334209D0FC
:101180002268526912F0800F04D0BB60636D43F097
:1011900002036365E26D04239340334209D0226861
:1011A000126812F0020F04D0BB60636D43F00403B9
:1011B0006365E26D10239340334224D022681268A5
:1011C00012F0080F1FD0BB6023681A6812F4802F3A
:1011D0000DD01B6813F4002F04D1236C9BB1204663
:1011E000984710E0A36C73B1204698470BE01A684B
:1011F00012F4807F03D11A6822F008021A60236C6F
:101200000BB120469847E26D20239340334255D0DE
:101210002268126812F0100F50D0BB6094F835307D
:10122000DBB2052B0ED023681A6812F4802F33D05E
:101230001B6813F4002F2AD1636C002B3ED020468C
:1012400098473BE02268136823F016031360226876
:10125000536923F080035361236CA3B122681368A0
:1012600023F008031360E26D3F239340BB6000232B
:1012700084F83430012384F83530236D002B3FD0BF
:10128000204698473CE0A36C002BE7D1EBE7E36BEB
:10129000A3B12046984711E01A6812F4807F09D163
:1012A0001A6822F010021A60002384F834300123F7
:1012B00084F83530E36B0BB120469847636DFBB182
:1012C000636D13F0010F17D0052384F835302268C1
:1012D000136823F001031360019B01330193AB42B8
:1012E00004D823681B6813F0010FF5D1002384F89C
:1012F0003430012384F83530E36C0BB12046984735
:1013000003B0F0BD18010020B5814E1B00230F2B48
:1013100000F2D780F0B482B039E0072200E000226A
:10132000B2403A430234674E46F82420664A1468B5
:10133000EA4302EA04064F6817F4803F01D045EA09
:101340000406614C2660646802EA04064F6817F4DC
:10135000003F01D045EA04065B4C6660A46802EADF
:1013600004064F6817F4801F01D045EA0406564C66
:10137000A660E46822404E6816F4001F01D045EADA
:101380000402514CE26001330F2B00F297800122DE
:101390009A400C6804EA0205AA42F4D14C68022C77
:1013A00001D0122C10D1DE08083650F826C003F008
:1013B0000704A7000F24BC402CEA040C0C69BC40B5
:1013C00044EA0C0440F8264004685F000326BE404F
:1013D000F64306EA040C4C6804F00304BC4044EAFB
:1013E0000C0404604C6804F1FF3CBCF1010F03D90C
:1013F000112C01D0122C10D1846806EA040CCC68A0
:10140000BC4044EA0C048460446824EA02024C684C
:10141000C4F300149C4014434460C26816408A68B8
:10142000BA403243C2604A6812F0805FABD00022FB
:101430000192264A546C44F480445464526C02F481
:1014400080420192019A9C08A61C1E4A52F82670FE
:1014500003F0030296000F22B24027EA02071C4A5B
:1014600090423FF45CAF02F5806290421AD002F5E0
:101470008062904218D002F58062904216D002F548
:101480008062904214D002F58062904212D002F540
:101490008062904210D002F5806290423FF43DAFEE
:1014A00008223DE701223BE7022239E7032237E722
:1014B000042235E7052233E7062231E702B0F0BC0B
:1014C0007047704700380140003C0140003802403E
:1014D0000000024012B909048161704781617047C0
:1014E0002DE9F04383B007460D46D0F80080CA00CE
:1014F000521A93000344DE6C1A6DB61A1B6C9E429E
:1015000000D91E4606F103094FEA990915E006F1D4
:1015100003094FEA9909EB005B1B9C003C44616C9A
:101520003B7C0093B3B2EAB2404601F0CFFB636C60
:1015300033446364236D33442365414608EB45130C
:1015400003F510639B699BB24B4512D9EA00521B0D
:1015500093003B441A6DDB6C9A420AD24BB19E1A3F
:10156000C5EBC50293003B441B6C9E42CFD91E467F
:10157000CDE73EB90123AB40D1F8345825EA030545
:10158000C1F83458002003B0BDE8F08300286BD0C8
:10159000F0B58BB00446032380F8B93302F062FD46
:1015A000206800F0DFFF254655F8107B6E460FCD12
:1015B0000FC60FCD0FC695E8030086E80300231D74
:1015C0000ECB384600F08AFF0021206800F0D0FFE3
:1015D000002210E0D100891A8B002344012183F8F6
:1015E000391083F83820DA87002183F83B1019641A
:1015F0005964D96401320E2AECD9002218E0D100D6
:10160000891A8B002344002183F8F91183F8F8210B
:10161000DA8783F8FB11C3F80012C3F80412C3F889
:101620000C12236802F1400003EB80035960013281
:101630000E2AE4D9254655F8107B6E460FCD0FC60D
:101640000FCD0FC695E8030086E80300231D0ECBDF
:10165000384600F0A3FF012384F8B933206801F075
:10166000E0FB00200BB0F0BD0120704790F8B833CC
:10167000012B0ED010B50446012380F8B833006862
:1016800001F0C3FB206800F067FF002084F8B80376
:1016900010BD0220704700002DE9F04704460568A0
:1016A000284601F0F9FB08B1BDE8F087064620683E
:1016B00001F0C3FB0028F7D0206801F0BEFB10F05A
:1016C000020F04D02268536903F0020353612068BB
:1016D00001F0B3FB10F4002F75D13746206801F0FC
:1016E000ACFB10F4802F40F0D280206801F0A5FB05
:1016F0000028C0F23E81206801F09FFB10F4006FCB
:101700000AD0D5F8083813F0010F40F04181226863
:10171000536903F400635361206801F08EFB10F4F9
:10172000805F40F03981206801F087FB10F4005F92
:1017300040F08281206801F080FB10F0100F14D07F
:101740002268936923F0100393612E6A06F00F0854
:10175000C6F34343022B00F00382062B00F02182E4
:101760002268936943F010039361206801F065FBE0
:1017700010F0080F40F02982206801F05EFB10F4A1
:10178000801F40F02B82206801F057FB10F4001FEF
:1017900040F02E82206801F050FB10F0804F40F0A6
:1017A0003182206801F049FB10F0040F3FF47CAF58
:1017B00023685D6815F0040F40F02D82226853689D
:1017C0002B43536070E7206801F03BFB80463746AF
:1017D00021E0F900C91B8A002244D2F800121B69DB
:1017E000C3F31203C91AC2F81012D2F80012D2F8C9
:1017F00004320B44C2F8043228E019F0080F3DD13E
:1018000019F0100F04D005EB47131022C3F8082B72
:1018100001374FEA5808B8F1000F3FF45FAF18F0F6
:10182000010FF5D05FFA87FA5146206801F019FBE5
:10183000814610F0010FE0D005EB47130122C3F8F9
:10184000082B03F530632269012AC2D05146204695
:1018500002F044FC2369012BCFD1002FCDD1C7EB7F
:10186000C70293002344D3F80C32002BC5D104F5F2
:101870006F720121206801F02FFBBEE7204602F0C5
:1018800025FC05EB47130822C3F8082BB8E72068AE
:1018900001F0DFFA804637462EE0FA00D21B9300B3
:1018A0002344196C5A6C0A445A6446E019F0080F34
:1018B00004D005EB47130822C3F8082919F0100FCC
:1018C00004D005EB47131022C3F8082919F0400F84
:1018D00004D005EB47134022C3F8082919F0020F82
:1018E00004D005EB47130222C3F8082919F0800F32
:1018F0003AD101374FEA5808B8F1000F3FF4F5AE7E
:1019000018F0010FF5D05FFA87FA5146206801F010
:10191000B1FA814610F0010FC8D0012202FA07F097
:10192000D5F8343823EA0003C5F8343805EB4713FB
:10193000C3F8082923699342AFD05146204602F0EC
:10194000D9FB2369012BB1D1002FAFD1C7EBC7025F
:1019500093002344DB6C002BA8D104F56F720121A6
:10196000206801F0B9FAA1E739462046FFF7B8FD33
:10197000BFE7D5F8043823F00103C5F80438204642
:1019800002F0F2FB2268536903F000435361B2E6B0
:10199000204602F0D1FBBAE6A94605F50068D8F862
:1019A000043023F00103C8F804301021206800F04F
:1019B0009DFE07E009EB4613FF22C3F80829C3F890
:1019C000082B01366368B342F4D84FF0FF33C8F8F0
:1019D0001830D8F81C3043F00113C8F81C30236BC2
:1019E000EBB1D8F8843043F00B03C8F88430D8F852
:1019F000443043F00B03C8F84430D5F8003823F4E2
:101A0000FE63C5F8003804F56F72217C206801F090
:101A100063FA2268536903F48053536183E6D8F86C
:101A2000143043F00B03C8F81430D8F8103043F0EA
:101A30000B03C8F81030E0E7206801F031FA2268A3
:101A4000D36823F47053D360206800F07CFE90B913
:101A50000023E3604FF4007363612268D36843F4AA
:101A60001053D360204602F056FB2268536903F4FA
:101A7000005353615EE60323E3604023636100F09B
:101A800027FD674B0344674A934205D82268D36811
:101A900043F47053D360E5E7634B0344634A9342D6
:101AA00005D82268D36843F46053D360DAE7A0F521
:101AB0007403A3F510535E4A934205D82268D36895
:101AC00043F45053D360CDE7A0F18373A3F5E7430C
:101AD000584A934205D82268D36843F44053D360F0
:101AE000C0E7554B0344554A934205D82268D36852
:101AF00043F43053D360B5E7514B0344514A93420A
:101B000005D82268D36843F42053D360AAE74E4B2C
:101B100003444E4A934205D82268D36843F41053D5
:101B2000D3609FE7A0F1B773A3F55853484A934297
:101B300005D82268D36843F40053D36092E7454B3D
:101B40000344454A934205D82268D36843F4E053DE
:101B5000D36087E72268D36843F4C053D36081E73A
:101B600047F6F0731E423FF4FBAD36094FEAC80A50
:101B7000AAEB08034FEA8309A144C6F30A02D9F885
:101B80000412284601F0B6F8C6F30A06D9F8043262
:101B90003344C9F80432D9F810321E44C9F810622F
:101BA000DEE5082204F56F71284601F0A3F8C6F3BC
:101BB0000A164FEAC803A3EB08018A002244D2F8B0
:101BC00010321E44C2F81062CAE5204602F09DFAA7
:101BD0002268536903F008035361CDE5F9B220464A
:101BE00002F0CEFA2268536903F480135361CAE508
:101BF000F9B2204602F0BEFA2268536903F40013DA
:101C00005361C7E5204602F0C1FA2268536903F028
:101C100080435361C5E5204602F0BEFACEE500BF21
:101C2000405327FFFF340C00401E1BFF3F420F00B4
:101C30007F4F12001FD6130060B6E5FE5FE316006B
:101C400000D3CEFE3F771B00C05BB3FEBF912100E7
:101C50001F753800E05459FEDF9C410090F8B833FE
:101C6000012B0BD010B50446012380F8B83300686F
:101C700001F0BBF8002084F8B80310BD02207047C3
:101C800070B54DB2002D22DB01F07F06C6EBC60613
:101C9000B40004F5FC74044401F07F012170ED0FE1
:101CA0006570A260E37005B1E180022B17D090F857
:101CB000B833012B16D00546012380F8B8332146EE
:101CC000006800F060FD002085F8B80370BD01F0E9
:101CD0007F06C6EBC606B40038340444DCE70023B4
:101CE0002371E4E70220F1E710B54AB2002A1CDBB9
:101CF00001F07F04C4EBC404A30003F5FC730344A8
:101D000001F07F011970D20F5A7090F8B823012AA0
:101D100013D00446012280F8B8231946006800F069
:101D20007BFD002084F8B80310BD01F07F04C4EBF4
:101D3000C404A30038330344E2E70220F4E770B59B
:101D400001F07F06F500A91B8C0004F5FC74011955
:101D5000AD1BAC000444C4F80422C4F80C320023C8
:101D6000C4F8103284F8F93184F8F8610369012B62
:101D700006D066B1DAB2006800F0C6FD002070BD82
:101D8000C6EBC605AC000444C4F80822F1E7DAB299
:101D9000006800F0EBFEF1E701F00F01C1EBC101BB
:101DA0008B001844B0F81002704770B501F07F0640
:101DB000F500A91B8C0038340119AD1BAC0004449C
:101DC0006264E36400232365012384F8393084F8D6
:101DD00038600369012B06D05EB1DAB2006800F00A
:101DE00093FD002070BDC6EBC605AC000444A264A0
:101DF000F2E7DAB2006800F0B9FEF2E738B54AB2AD
:101E0000002A1DDBC1EBC104A30003F5FC730344EE
:101E100001249C7001F07F041C70D20F5A7090F85E
:101E2000B823012A1BD00546012280F8B8231946A1
:101E3000006800F073FF5CB1002085F8B80338BD7E
:101E400001F07F04C4EBC404A30038330344DFE78C
:101E500005F56F72297C286801F03EF8ECE7022056
:101E6000EDE710B54AB2002A1CDBC1EBC104A300A8
:101E700003F5FC73034400249C7001F07F0119708A
:101E8000D20F5A7090F8B823012A13D004460122C9
:101E900080F8B8231946006800F072FF002084F82B
:101EA000B80310BD01F07F04C4EBC404A3003833B1
:101EB0000344E0E70220F4E730B40468606A29B123
:101EC0000D46A36A00EB134000230CE040EA0240F9
:101ED000A06212E003F1400104EB8101496800EBCC
:101EE00011400133DBB2691E8B42F3DB40EA024052
:101EF00005F13F0104EB81014860002030BC7047D0
:101F00000368596200207047002800F0BB8170B55B
:101F100082B00446036813F0010F3BD0A74B9B68C7
:101F200003F00C03042B2CD0A44B9B6803F00C0390
:101F3000082B21D06368B3F5803F4FD0B3F5A02FB5
:101F400052D09E4B1A6822F480321A601A6822F42A
:101F500080221A606368002B50D0FEF76BFB0546A9
:101F6000964B1B6813F4003F14D1FEF763FB401B34
:101F70006428F5D903208AE1904B5B6813F4800F45
:101F8000D8D08E4B1B6813F4003F03D06368002B3E
:101F900000F07A81236813F0020F55D0874B9B68BD
:101FA00013F00C0F3ED0854B9B6803F00C03082BFD
:101FB00033D0E368002B68D0814B01221A60FEF712
:101FC00039FB05467D4B1B6813F0020F54D1FEF719
:101FD00031FB401B0228F5D9032058E1774A1368EA
:101FE00043F480331360B5E7744B1A6842F48022DF
:101FF0001A601A6842F480321A60ABE7FEF71AFBE7
:1020000005466E4B1B6813F4003FC3D0FEF712FB6E
:10201000401B6428F5D9032039E1684B5B6813F451
:10202000800FC6D1654B1B6813F0020F04D0E36824
:10203000012B01D001202AE1604A136823F0F80344
:10204000216943EAC1031360236813F0080F40D0ED
:10205000636963B35B4B01221A60FEF7EBFA054636
:10206000564B5B6F13F0020F33D1FEF7E3FA401BC0
:102070000228F5D903200AE1504A136823F0F80337
:10208000216943EAC1031360DEE74D4B00221A6069
:10209000FEF7D0FA0546494B1B6813F0020FD3D068
:1020A000FEF7C8FA401B0228F5D90320EFE0454BA4
:1020B00000221A60FEF7BEFA0546404B5B6F13F034
:1020C000020F06D0FEF7B6FA401B0228F5D903200E
:1020D000DDE0236813F0040F79D0384B1B6C13F04C
:1020E000805F33D100230193344B1A6C42F080524D
:1020F0001A641B6C03F080530193019B0125324B42
:102100001B6813F4807F23D0A368012B34D0052BE8
:1021100038D02A4B1A6F22F001021A671A6F22F088
:1021200004021A67A368002B36D0FEF783FA06462E
:10213000224B1B6F13F0020F48D1FEF77BFA801B76
:1021400041F288339842F3D90320A0E00025D6E776
:102150001D4A136843F480731360FEF76BFA06465A
:10216000194B1B6813F4807FCED1FEF763FA801BF6
:102170000228F5D903208AE0104A136F43F00103C7
:102180001367CFE70D4B1A6F42F004021A671A6FFC
:1021900042F001021A67C5E7FEF74CFA0646074B04
:1021A0001B6F13F0020F11D0FEF744FA801B41F2AF
:1021B00088339842F3D9032069E000BF0038024019
:1021C00000004742800E474200700040E5B9A36915
:1021D000002B5BD0304A926802F00C02082A58D0DB
:1021E000022B17D02D4B00221A60FEF723FA04466B
:1021F000294B1B6813F0007F42D0FEF71BFA001B2F
:102200000228F5D9032042E0234A136C23F08053BF
:102210001364DCE7214B00221A60FEF70BFA054637
:102220001D4B1B6813F0007F06D0FEF703FA401B1E
:102230000228F5D903202AE0E369226A1343626A7F
:1022400043EA8213A26A5208013A43EA0243E26A6D
:1022500043EA0263104A5360104B01221A60FEF7F2
:10226000E9F904460C4B1B6813F0007F06D1FEF71A
:10227000E1F9001B0228F5D9032008E0002006E060
:10228000002004E001207047012000E0002002B09F
:1022900070BD0120FBE700BF0038024060004742EC
:1022A000324B9B6803F00C03042B5CD0082B01D04D
:1022B0002F4870472DE9F04B2C4B5A6802F03F0233
:1022C0005B6813F4800F2BD0284B5B68C3F3881333
:1022D0001E4600275C010025E41A65EB0705A901ED
:1022E00041EA9461A001001B61EB0501CB0043EAC8
:1022F0005073C400A01943EB07014B0243EAD053CB
:102300004402204619460023FDF762FF174B5B6825
:10231000C3F3014301335B00B0FBF3F0BDE8F08B86
:10232000124B5B68C3F388131E4600275C0100252F
:10233000E41A65EB0705A90141EA9461A001001BBD
:1023400061EB0501CB0043EA5073C400A01943EBD5
:1023500007018B0243EA905384022046194600236A
:10236000FDF736FFD2E70348704700BF0038024050
:102370000024F40000127A00002800F09D8070B55F
:1023800004464F4B1B6803F00F038B4209D2CBB2BC
:102390004B4A1370136803F00F038B4201D00120E6
:1023A00070BD236813F0020F17D013F0040F04D090
:1023B000444A936843F4E0539360236813F0080F92
:1023C00004D0404A936843F4604393603D4A936865
:1023D00023F0F003A068034393600D46236813F0D5
:1023E000010F32D06368012B21D09A1E012A25D912
:1023F000344A126812F0020F60D032498A6822F023
:10240000030213438B60FEF715F906462D4B9B68BC
:1024100003F00C036268B3EB820F16D0FEF70AF9E3
:10242000801B41F288339842F0D90320B8E7254A4F
:10243000126812F4003FE0D10120B1E7214A12688E
:1024400012F0007FD9D10120AAE71D4B1B6803F0D1
:102450000F03AB4209D9EAB2194B1A701B6803F09B
:102460000F03AB4201D001209AE7236813F0040F59
:1024700006D0144A936823F4E053E1680B43936059
:10248000236813F0080F07D00E4A936823F46043C3
:10249000216943EAC1039360FFF702FF094B9B6880
:1024A000C3F30313084AD35CD840084B18600020DC
:1024B000FEF776F8002073E70120704701206FE7F0
:1024C000003C0240003802400C4D0008180100207A
:1024D000014B1868704700BF1801002084B010B588
:1024E000044603A880E80E00089B012B20D1A36BB3
:1024F00023F48033A363E36823F4840323F04003CD
:10250000E360E36823F44013E3600F9B012B0AD0E0
:10251000204600F005FD069B012B14D00020BDE8ED
:10252000104004B07047E36843F48013E360EFE7C2
:10253000E36843F04003E360204600F0F1FC4FF411
:102540008033A363E7E7A36843F00603A360A368AF
:1025500043F02003A360E1E7836843F00103836055
:1025600000207047836823F00103836000207047D8
:1025700008B5C36823F0C043C360012909D019B965
:10258000C36843F08043C3603220FEF759F800204F
:1025900008BDC36843F00053C360F5E784B0F8B5E5
:1025A000044607A880E80E00119FBFB9A36B43F44F
:1025B0000013A36325460023C4F8003E04F500661B
:1025C000D4F80038C4F800380C9B012B10D1099BBB
:1025D0004BB90021204600F0AFF80DE0A36B43F4A7
:1025E0000023A363E6E70121204600F0A5F803E0FD
:1025F0000321204600F0A0F81021204600F076F8D4
:10260000204600F087F80023336173614FF0FF32FA
:10261000B261F36108E04FF09040C2F80009002277
:102620000A61FF228A600133079999420BD905EBB1
:10263000431202F51061D2F800090028EBDB0020FC
:10264000C2F80009EBE7002308E04FF0904CC2F815
:1026500000CB00220261FF228260013399420DD932
:1026600005EB431202F53060D2F800CBBCF1000F4D
:10267000EBDB4FF0000CC2F800CBEAE7336923F440
:10268000807333610A9B012B1AD00022A2616FF084
:10269000804262611BB9A36943F01003A361A26980
:1026A000104B1343A3610D9B1BB1A36943F00803B7
:1026B000A361012F0ED00020BDE8F84004B07047A0
:1026C000094A3263326B42F4803242F003023263D1
:1026D000326BDAE7A36943F0804343F00403A3615C
:1026E000E9E700BF00383C8000018000890141F02B
:1026F0002001016100230133054A934205D8026994
:1027000012F0200FF7D1002070470320704700BF60
:10271000400D03001023036100230133054A934257
:1027200005D8026912F0100FF7D10020704703207E
:10273000704700BF400D0300D0F800381943C0F8BF
:10274000001800207047D0F8083800F5006013F03A
:10275000060F10D0836803F00603022B0DD08368A8
:1027600003F00603062B0AD0836803F00603042B4C
:1027700007D00020704700207047032070470320D7
:1027800070470220704730B44B78012B22D0D0F82C
:102790001C380D780122AA4043EA0243C0F81C38D5
:1027A0000B7800EB4310D0F8003B13F4004F0ED130
:1027B000D0F8003B8A68C2F30A02C97842EA814233
:1027C000134343F0805343F40043C0F8003B002020
:1027D00030BC7047D0F81C280D78AB409BB2134337
:1027E000C0F81C380C7800EB4410D0F8003913F412
:1027F000004FECD1D0F800398A68C2F30A02C978D8
:1028000042EA814242EA8452134343F0805343F444
:102810000043C0F80039DAE738B54B78012B36D0E1
:102820000B78044600EB4313D3F8002B22F400424C
:10283000C3F8002B0B7800EB43134FF00062C3F892
:10284000002B0B7800EB43134FF08042C3F8002BB2
:10285000002201322B4B9A4252D80B7804EB4313DF
:1028600003F530639B6813F0100FF2D1D0F80438F1
:1028700043F48063C0F80438D0F81C38097801228A
:102880008A4023EA0243C0F81C38002038BD0B7888
:10289000044600EB4313D3F8002922F40042C3F8A6
:1028A00000290B7800EB43134FF00062C3F80029B6
:1028B0000B7800EB43134FF08042C3F8002900224D
:1028C0000132104B9A4219D80B7804EB431303F5ED
:1028D00010639B6813F0804FF2D10D46044610211F
:1028E000FFF704FFD4F81C28297801238B409BB202
:1028F00022EA0303C4F81C380020C7E70320C5E719
:102900000320C3E7400D030070B582B04B78012B64
:102910003ED00B7800EB4313D3F8104BE40CE404E7
:10292000C3F8104B0B7800EB4313D3F8104B24F093
:10293000FF5424F4C014C3F8104B4B69002B40F033
:10294000D4800B7800EB4313D3F8104B8D68C5F39C
:1029500012052C43C3F8104B0B7800EB4313D3F84C
:10296000104B44F40024C3F8104B012A00F0DC8023
:10297000CB78012B00F0DF800B7800EB4310D0F810
:10298000003B43F00443C0F8003B002002B070BDA0
:102990004B696BBB0B7800EB4313D3F8104924F061
:1029A000FF5424F4C014C3F810490B7800EB431310
:1029B000D3F8104944F40024C3F810490B7800EB15
:1029C0004313D3F81049E40CE404C3F81049012A76
:1029D00054D0CB78012B57D04B69002B54D0D0F872
:1029E00034380E780124B4402343C0F834384BE027
:1029F0000B7800EB4313D3F81049E40CE404C3F85C
:102A000010490B7800EB4313D3F8104924F0FF541E
:102A100024F4C014C3F810490C7800EB4414D4F823
:102A200010594B698E683344013BB3FBF6F34E4EAD
:102A300006EAC3432B43C4F810390B7800EB431369
:102A4000D3F810494D69C5F312052C43C3F810495A
:102A5000CB78012BBBD10B7800EB4313D3F8104993
:102A600024F0C044C3F810490B7800EB4313D3F8AB
:102A7000104944F00054C3F81049A8E70B7800EB64
:102A800043130C69C3F81449CB78012B14D00B788D
:102A900000EB4313D3F8004944F00444C3F8004961
:102AA000CB78012B7FF471AF14468B8A0A78C96802
:102AB000009400F00BF968E7D0F8083813F4807F31
:102AC00009D10B7800EB4313D3F8004944F00054CC
:102AD000C3F80049DBE70B7800EB4313D3F8004958
:102AE00044F08054C3F80049D1E78C682344013B8B
:102AF000B3FBF4F30C7800EB4414D4F8105B1A4EDB
:102B000006EAC3463543C4F8105B0C7800EB441466
:102B1000D4F8106B8D689BB205FB03F5C5F3120565
:102B20003543C4F8105B20E7CA680B7800EB431309
:102B3000C3F8142B1CE7D0F8083813F4807F09D1B0
:102B40000B7800EB4313D3F8002B42F00052C3F88C
:102B5000002B11E70B7800EB4313D3F8002B42F066
:102B60008052C3F8002B07E70000F81F30B44B7801
:102B7000012B39D00B7800EB4313D3F8104BE40C46
:102B8000E404C3F8104B0B7800EB4313D3F8104B5D
:102B900024F0FF5424F4C014C3F8104B4B690BB15C
:102BA0008B684B610B7800EB4313D3F8104B44F464
:102BB0000024C3F8104B0B7800EB4313D3F8104BF1
:102BC0008D68C5F312052C43C3F8104B012A76D04B
:102BD0000B7800EB4310D0F8003B43F00443C0F8FF
:102BE000003B002030BC70474B699BBB0B7800EB6F
:102BF0004313D3F8104924F0FF5424F4C014C3F84D
:102C000010490B7800EB4313D3F8104944F4002427
:102C1000C3F810490B7800EB4313D3F81049E40CC8
:102C2000E404C3F810490B7800EB4313D3F80049D0
:102C300044F00444C3F80049012A39D04B69002B01
:102C4000CFD0D0F83438097801228A401343C0F835
:102C50003438C6E70B7800EB4313D3F81049E40C83
:102C6000E404C3F810490B7800EB4313D3F8104980
:102C700024F0FF5424F4C014C3F810494C698B6845
:102C80009C4200D94B610B7800EB4313D3F81049F9
:102C900044F40024C3F810490B7800EB4313D3F835
:102CA00010494D69C5F312052C43C3F81049BAE722
:102CB0000B7800EB43100B69C0F8143991E7CA6830
:102CC0000B7800EB4313C3F8142B81E770B49DF825
:102CD0000C4064B903339D0807E000EB023303F5B1
:102CE000805351F8046B1E600134AC42F5D30020D0
:102CF00070BC704703329208002393420CD210B488
:102D000000F58054246841F8044B01339342F7D313
:102D100008465DF8044B7047084670474B78012B16
:102D200017D00B7800EB4313D3F8002B002A05DBF8
:102D3000D3F8002B22F08042C3F8002B0B7800EB75
:102D40004310D0F8003B43F40013C0F8003B0020D0
:102D500070470B7800EB4313D3F80029002A05DBFA
:102D6000D3F8002922F08042C3F800290B7800EB49
:102D70004310D0F8003943F40013C0F80039E6E7F7
:102D80004B78012B0FD00B7800EB4313D3F8002BBB
:102D900022F40012C3F8002BCB78023BDBB2012BEC
:102DA00019D9002070470B7800EB4313D3F80029A2
:102DB00022F40012C3F80029CB78023BDBB2012BCE
:102DC000EFD80B7800EB4310D0F8003943F0805374
:102DD000C0F80039E5E70B7800EB4310D0F8003B72
:102DE00043F08053C0F8003BDBE7D0F8003823F411
:102DF000FE63C0F80038D0F80038090101F4FE6124
:102E00000B43C0F800380020704708B5D0F80438EC
:102E100023F00203C0F804380320FDF711FC002062
:102E200008BD08B5D0F8043843F00203C0F80438F0
:102E30000320FDF705FC002008BD426980691040B1
:102E40007047D0F8183800F50060C0691840000CD1
:102E50007047D0F8183800F50060C069184080B29B
:102E6000704700EB4111D1F8082B00F50060406974
:102E70001040704710B4D0F81048D0F83438CB4028
:102E8000DB01DBB2234300EB411000F510608068EA
:102E900018405DF8044B7047406900F0010070472E
:102EA000D0F8003923F4FF6323F00703C0F800399A
:102EB00000F500639A6802F00602042A05D05A68F9
:102EC00042F480725A6000207047D0F8002942F026
:102ED0000302C0F80029F2E710B40024C0F8104B38
:102EE000D0F8104B44F40024C0F8104BD0F8104B2D
:102EF00044F01804C0F8104BD0F8104B44F0C04414
:102F0000C0F8104B012903D000205DF8044B704736
:102F1000C0F8142B4FF08023C0F8003BF4E700000A
:102F2000002301330C4A934211D80269002AF8DACF
:102F3000036943F00103036100230133064A93420E
:102F400007D8026912F0010FF7D100207047032063
:102F500070470320704700BF400D0300D0F81832BF
:102F60001BB10020C3F8140270470220704710B54F
:102F7000D0F81842D0F81C325BB194F80002FF2858
:102F800007D09B6894F8012221469847FF2384F8D4
:102F90000032002010BD000043230380004870472A
:102FA0000800002043230380004870474C000020A5
:102FB0004323038000487047900000200A230380C9
:102FC00000487047D400002038B50446D0F81852A5
:102FD00001F0ACF9C5F80C02D4F818324BB1D4F8B2
:102FE0001C32DB6805F50371D5F804029847002010
:102FF00038BD0220FCE7000070B505460C46D0F84D
:1030000018620B7813F0600225D0202A07D1CA88F5
:103010003AB9D0F81C329B680022487898470020C3
:1030200070BD13F0800F0BD0D0F81C329B68314676
:1030300060789847E2883146284600F081FCEEE748
:103040004B7886F80032CB8886F80132CA88314640
:1030500000F08BFCE3E74B780A2BE0D10122024918
:1030600000F06EFCDBE700BFE001002010B5044675
:10307000812101F0F0F80121204601F0ECF88221D5
:10308000204601F0E8F8D4F8183253B1D4F81C32D5
:103090005B689847D4F8180201F006FA0023C4F8D8
:1030A0001832002010BD38B50446037C73BB4FF4C2
:1030B00000730222812101F0BDF84FF40073022257
:1030C0000121204601F0B6F8082303228221204680
:1030D00001F0B0F84FF4077001F0DEF90546C4F8CE
:1030E000180248B3D4F81C321B6898470023C5F86F
:1030F0001432C5F81832237CA3B14023D5F804223A
:103100000121204601F004F9002038BD40230222AD
:10311000812101F08FF8402302220121204601F095
:1031200089F8D1E74FF40073D5F804220121204635
:1031300001F0EEF80020E8E70120E6E719B1C0F859
:103140001C120020704702207047D0F81832C3F8D4
:103150000812C3F8102200207047D0F81832C3F8C4
:10316000041200207047D0F818228AB108B5D2F8AE
:1031700014320BB1012008BD0123C2F81432B2F899
:103180001032D2F80822812101F0B4F80020F2E7D1
:1031900002207047D0F818229AB108B5037C3BB1E1
:1031A0004023D2F80422012101F0B2F8002008BD2A
:1031B0004FF40073D2F80422012101F0A9F8002095
:1031C000F5E70220704798B108B50346D0F814021D
:1031D00010B10020C3F8140209B1C3F81012184648
:1031E000012380F8FC31027000F0DCFF002008BDF4
:1031F0000220704719B1C0F8141200207047022055
:10320000704708B501F008F8002008BD08B5D0F8EF
:10321000143233B11B68984708B9002008BD02205A
:10322000FCE70220FAE708B5D0F814325B6898474B
:10323000002008BD38B5044600F50275284600F0A8
:103240001DF90123C4F8F431B4F80E32C4F8F83192
:1032500094F8081201F01F03012B0ED03BB1022B92
:1032600010D001F08001204601F003F803E0294668
:10327000204600F07CFA002038BD2946204600F0A8
:103280009AFAF8E72946204600F0B1FAF3E710B5BC
:10329000044621BB1346D0F8F421032A01D00020B4
:1032A00010BDD0F80C11D0F8102191420CD8D0F8F4
:1032B00014321B6923B190F8FC21032A00D19847EE
:1032C000204600F069FBEAE7891AC0F80C118A422F
:1032D00028BF0A4692B2194600F056FBDFE70A46BD
:1032E000D0F814329B69002BD9D090F8FC11032937
:1032F000D5D111469847D2E710B50446002946D1EA
:103300001346D0F8F421022A05D094F80032012B9C
:1033100039D0002010BDC169026A914219D8816973
:10332000B1FBF2F302FB13132BB98A4203D8D0F896
:10333000F83199421AD3D4F81432DB682BB194F8DF
:10334000FC21032A01D120469847204600F02FFB9C
:10335000DBE78A1AC26192B2194600F0FEFA002336
:103360001A461946204600F0D3FFCEE70022114648
:1033700000F0F3FA0021C4F8F8110B460A46204683
:1033800000F0C6FFC1E7002384F80032C1E70A4617
:10339000D0F814325B69002BBBD090F8FC110329E4
:1033A000B7D111469847B4E738B504464023002208
:1033B000114600F03FFF4025C4F810512B46002273
:1033C0008021204600F036FF2562012384F8FC317D
:1033D000D4F818322BB1D4F814325B682179204626
:1033E0009847002038BD01740020704790F8FC31E8
:1033F00080F8FD31042380F8FC310020704790F8FC
:10340000FD3180F8FC310020704708B590F8FC31A0
:10341000032B01D0002008BDD0F81432DB69002B4B
:10342000F8D09847F6E7002070470020704700204A
:10343000704708B5012280F8FC21D0F814225268A8
:1034400001799047002008BD002302E00133DBB280
:1034500001300278002AF9D1184670474B88012BB9
:103460000BD110B50446C0F80432D0F814329B6872
:103470009847204600F090FA10BD70470B78037013
:103480004B7843708B78CA7803EB022343800B7927
:103490004A7903EB022383808B79CA7903EB0223F9
:1034A000C380704710B50446802100F0E2FE002181
:1034B000204600F0DEFE10BD30B583B004460D4658
:1034C0004A88130A013B062B00F28180DFE803F0F3
:1034D0000413277F7F637000D0F810321B680DF152
:1034E0000601007C9847BDF8062012B1EB88002B3E
:1034F00071D103B030BD037C43B9D0F814329B6A5C
:103500000DF10600984702234370ECE7D0F814321F
:10351000DB6A0DF10600984702234370E3E7D2B25D
:10352000052A34D8DFE802F0030B131B232BD0F855
:1035300010325B680DF10601007C9847D3E7D0F8A4
:1035400010329B680DF10601007C9847CBE7D0F85C
:103550001032DB680DF10601007C9847C3E7D0F814
:1035600010321B690DF10601007C9847BBE7D0F8CB
:1035700010325B690DF10601007C9847B3E7D0F883
:1035800010329B690DF10601007C9847ABE7294694
:10359000FFF788FFADE7037C33B9D0F814325B6BDB
:1035A0000DF1060098479EE72946FFF77BFFA0E74D
:1035B000037C43B9D0F814321B6B0DF10600984719
:1035C000072343708FE72946FFF76CFF91E72946F1
:1035D000FFF768FF8DE79A4228BF1A46ADF806202C
:1035E0000146204600F0ACF983E738B504468B88E5
:1035F000E3B9CB88D3B98D7805F07F0590F8FC311D
:10360000032B0CD080F8FE51294600F065FE2046C1
:1036100000F0C2F935B1022384F8FC3109E0FFF76C
:1036200041FF06E0012384F8FC3102E02046FFF769
:1036300039FF38BD38B504460D468978254B1970D9
:10364000012909D890F8FC31022B09D0032B1CD09A
:103650002946FFF727FF02E02946FFF723FF38BD81
:1036600081B14160032380F8FC31FFF7CFFD0228D0
:1036700003D0204600F090F9F1E729462046FFF7F5
:1036800011FFECE700F088F9E9E789B14368994256
:103690001DD0D9B2FFF7C7FD0E4B197861602046E7
:1036A000FFF7B4FD02280DD0204600F075F9D6E7EB
:1036B000022380F8FC314160FFF7B5FD204600F0A1
:1036C0006BF9CCE729462046FFF7ECFEC7E700F090
:1036D00063F9C4E7E101002008B5CB88012B08D1CC
:1036E00090F8FC31022B07D0032B0DD0FFF7DAFE48
:1036F00001E0FFF7D7FE08BD0146002341F8083F6F
:10370000012200F01DF9F6E70122011D00F018F971
:10371000F1E708B590F8FC31023B012B0CD80123EE
:10372000C360D0F804320BB10323C360022200F15E
:103730000C0100F005F908BDFFF7B4FEFBE710B57A
:10374000044690F8FC31023B012B0DD84B88012B2D
:1037500009D10023C0F80432D0F814329B6898478E
:10376000204600F019F910BDFFF79CFEFBE708B5F5
:103770004B78092B1CD8DFE803F012181B151B0926
:10378000051B0F0CFFF798FE002008BDFFF72DFF6B
:10379000FAE7FFF74FFFF7E7FFF79EFFF4E7FFF7C2
:1037A000B8FFF1E7FFF75AFEEEE7FFF7C8FFEBE7D8
:1037B000FFF778FEE8E738B504460D4690F8FC318F
:1037C000032B11D10B79012B0BD8D0F814329B6845
:1037D0009847EB880BB1002038BD204600F0DCF89C
:1037E000F9E7FFF75FFEF6E7FFF75CFEF3E738B5B2
:1037F00005460C468A880B7803F06003202B05D120
:10380000D0F814329B689847002038BDD1B2637855
:10381000012B25D0002B47D0032BF5D190F8FC319C
:10382000022B05D0032B0AD02146FFF73BFEEBE726
:103830000029E9D08029E7D000F01BFDE4E7638888
:1038400023B919B1802901D000F013FDD5F8143245
:103850009B68214628469847284600F09DF8D3E704
:1038600090F8FC31022B05D0032B0AD02146FFF73C
:1038700019FEC9E70029C7D08029C5D000F0F9FC9E
:10388000C2E76388002BBFD111F07F0F03D1284618
:1038900000F082F8B8E700F0FAFCD5F814329B6823
:1038A000214628469847F2E790F8FC31022B05D0D4
:1038B000032B09D02146FFF7F5FDA5E711F07F0F97
:1038C000A2D000F0D6FC9FE712F0800F11D101F0DA
:1038D0007F04103400EB04140434284600F0E5FCA7
:1038E00070B10123236002222146284600F028F807
:1038F0008AE701F07F04013400EB04140434ECE7A0
:1039000000232360EFE7D0B170B50D46164604469C
:10391000FFF79AFD0130400080B230802870032309
:103920006B70022307E001345A1CD2B2E95402330F
:10393000DBB20021A95421780029F4D170BD704771
:1039400010B513460222C0F8F4218361C3610A4610
:10395000002100F0CFFC002010BD08B513460A4638
:10396000002100F0C7FC002008BD10B5134603225B
:10397000C0F8F421C0F80831C0F80C310A46002123
:1039800000F0C6FC002010BD08B513460A46002111
:1039900000F0BEFC002008BD08B50423C0F8F431D7
:1039A00000231A46194600F0A5FC002008BD08B502
:1039B0000523C0F8F43100231A46194600F0A8FC8C
:1039C000002008BD30B589B000240094184B1A6B54
:1039D00042F080021A631A6B02F080020092009A91
:1039E00001941A6B42F001021A631A6B02F0010291
:1039F0000192019A02941A6B42F008021A631B6B3F
:103A000003F008030293029B0A4D22464FF48051B3
:103A10002846FDF75FFD4FF4805303930123049381
:103A20000594069403A92846FDF770FC09B030BD43
:103A300000380240000C024000B583B00021019123
:103A4000094B1A6B42F480021A631B6B03F4800368
:103A50000193019B0A463820FDF714F93820FDF741
:103A600045F903B05DF804FB0038024070B594B02E
:103A7000224B00222249684600F0D6FD6846FCF73A
:103A800031FD0146684600F08BFA002401E0013464
:103A9000A4B2B4F5805F27D223460022114619480C
:103AA000FDF7C9F9154D184E022229463046FCF79C
:103AB000F9FE01213046FCF799FE3046FCF794FFF1
:103AC0006B682A681149684600F0AEFD6846FCF74D
:103AD00009FD0146684600F063FA0134A4B2B4F56A
:103AE000805FD4D30024D2E740F6FF730022114652
:103AF0000448FDF7A0F914B070BD00BFB00200206B
:103B0000244D00083C020020F4010020344D000840
:103B1000FEE7000000B585B01C481D4B0360002384
:103B2000436083600122026182610362C3621949BA
:103B30008162C3600223C36102634261FCF72CFE11
:103B4000A8B90023009301220192029369460F480D
:103B5000FCF7BEFF78B90123009302230193694665
:103B60000A48FCF7B5FF58B905B05DF804FBF82129
:103B70000948FFF7CDFF4FF481710748FFF7C8FFF1
:103B800040F20B110448FFF7C3FF00BFF40100200F
:103B9000002001400100000F3C4D000800B583B03B
:103BA0000D480E4B0360FDF7D8F850B90022009283
:103BB000019269460848FDF719F938B903B05DF874
:103BC00004FB40F21B110648FFF7A2FF4FF492716D
:103BD0000348FFF79DFF00BF3C0200200074004037
:103BE0003C4D000800B595B000210191294B1A6C9D
:103BF00042F080521A641B6C03F080530193019BC6
:103C00000291254B1A6842F480421A601B6803F443
:103C100080430293029B032308934FF4803209925E
:103C200001220B9210220C9202220E924FF480017C
:103C30000F9104211091482111911292139308A819
:103C4000FEF762F9F0B90F23039300210491059167
:103C50000691079103A8FEF78FFBB8B9FEF738FC71
:103C60000E4BA3FB00308009FDF74CF80420FDF754
:103C70005FF8002211464FF0FF30FDF703F815B052
:103C80005DF804FBC5210648FFF742FFD321044835
:103C9000FFF73EFF0038024000700040D34D621035
:103CA0003C4D000808B5FCF79FFCFFF79BFFFFF7B2
:103CB00089FEFFF7C1FEFFF72DFFFFF76FFF00F052
:103CC0003BF900224FF480511A48FDF703FC002114
:103CD0001948FDF754F809E0184B00221A70FFF755
:103CE000C5FE07E0154B1B78032B15D0134B1B7833
:103CF000012BF1D0114B1B78022BF3D100210F4B7C
:103D0000197040F6FF730A460B48FDF794F813212B
:103D10000B4800F045F9E5E70021084B19700B4608
:103D20000A460548FDF787F81421064800F038F9DF
:103D3000DCE700BF000C02403C020020E201002052
:103D40004C4D0008604D000810B582B0002400946E
:103D5000214B5A6C42F480425A645A6C02F48042FD
:103D60000092009A01941A6C42F080521A641B6C03
:103D700003F080530193019B0320FCF771FF22465F
:103D800021466FF00B00FCF77DFF224621466FF0C5
:103D90000A00FCF777FF224621466FF00900FCF786
:103DA00071FF224621466FF00400FCF76BFF2246AC
:103DB00021466FF00300FCF765FF224621466FF0B5
:103DC0000100FCF75FFF224621464FF0FF30FCF771
:103DD00059FF02B010BD00BF0038024002681D4B01
:103DE0009A4200D0704730B587B004460025009550
:103DF00003F58C335A6C42F480725A645B6C03F4A2
:103E000080730093009B032301930293039501A900
:103E10001148FDF77BFA1148114B0360456085603E
:103E2000C5604FF4806303614FF4805343614FF4E6
:103E300080438361C56105624562FDF78FF820B953
:103E4000064BA3639C6307B030BD7F210548FFF795
:103E50005FFEF5E700200140000002405002002014
:103E600010640240784D000802680F4B9A4200D05F
:103E7000704700B587B00021009103F5E2331A6C5A
:103E800042F000521A641B6C03F000530093009B35
:103E90001023019303230293039101A90348FDF723
:103EA00035FA07B05DF804FB0074004000000240E2
:103EB0007047FEE7FEE7FEE7FEE770477047704792
:103EC00008B5FCF7ABFBFCF744FF08BD08B502489A
:103ED000FDF72EF908BD00BF5002002008B50248CA
:103EE000FDF7DAFB08BD00BFDC1400200F49D1F854
:103EF000883043F47003C1F888300D4B1A6842F0E3
:103F000001021A60002098601A6822F0847222F47C
:103F100080321A60074A5A601A6822F480221A60B6
:103F2000D8604FF000638B60704700BF00ED00E089
:103F3000003802401030002410B5094C0022094915
:103F40002046FFF740F908492046FFF753F9074993
:103F50002046FFF7F3F82046FFF753F910BD00BFE6
:103F6000B802002044010020E00000201C010020D5
:103F7000002070470020704710B5064C002206490B
:103F80002046FFF7E2F805492046FFF7E6F8002053
:103F900010BD00BFB8020020DC0C0020DC040020B3
:103FA000094BD3F81832D3F814320BB10120704703
:103FB00010B50A460146044C2046FFF7C6F82046D5
:103FC000FFF7D1F810BD00BFB802002010B594B0C3
:103FD00004460146684600F047FB69461348FCF773
:103FE00077FA20B9124B01221A7014B010BD214685
:103FF000684600F039FB69460E48FCF769FA18B9C3
:104000000B4B02221A70F0E72146684600F02CFBA9
:1040100069460948FCF75CFA18B1054B00221A7092
:10402000E3E7034B03221A70DFE700BF944D00085B
:10403000E2010020A04D0008A84D000870B504461C
:104040000E46074D01462846FFF787F82846FFF73A
:10405000A1F831682046FFF7B9FF002070BD00BF0E
:10406000B80200200368B3F1A04F00D0704710B52C
:1040700086B04FF4C05301930223029300240394AB
:10408000032304930A23059301A90E48FDF73EF983
:104090000D4B5A6B42F080025A6300945A6C42F402
:1040A00080425A645B6C03F480430093009B224679
:1040B00021464320FCF7E6FD4320FCF717FE06B03F
:1040C00010BD00BF000002400038024008B500F5F6
:1040D0006F71D0F8EC03FFF7ADF808BD08B5C1EB80
:1040E000C10293000344D3F80422D0F8EC03FFF795
:1040F000CEF808BD08B5C1EBC102930003445A6C69
:10410000D0F8EC03FFF7F8F808BD08B5D0F8EC03D9
:10411000FFF77BF908BD10B50446C3684BB1012118
:10412000D4F8EC03FFF75FF9D4F8EC03FFF73CF9A0
:1041300010BD0021F4E7000010B50446D0F8EC03F0
:10414000FFF754F92268D2F8003E43F00103C2F8A9
:10415000003E236A23B1034A136943F00603136147
:1041600010BD00BF00ED00E008B5D0F8EC03FFF78C
:1041700046F908BD08B5D0F8EC03FFF756F908BDBD
:1041800008B5D0F8EC03FFF74EF908BD08B5D0F834
:10419000EC03FFF74CF908BD08B5D0F8EC03FFF7C6
:1041A00048F908BD03780BB10020704710B50346ED
:1041B0001748C0F8EC33C3F820024FF0A043036067
:1041C000042343600222C2600023036143618261D1
:1041D000C36103624362C3620363FDF7D7F980B929
:1041E0000B4C80212046FDF78BFE4022002120460B
:1041F000FDF762FE802201212046FDF75DFE0020D2
:1042000010BD4FF4A5710348FFF782FCE8E700BF3B
:10421000DC140020B04D000808B5D0F82002FDF7EE
:1042200025FA18B1022803D0022008BD0020FCE7BF
:104230000120FAE710B51C4613462246D0F82002AA
:10424000FDF71EFD18B1022803D0022010BD00208A
:10425000FCE70120FAE708B5D0F82002FDF744FD9D
:1042600018B1022803D0022008BD0020FCE701207D
:10427000FAE708B5D0F82002FDF7C0FD18B1022812
:1042800003D0022008BD0020FCE70120FAE708B5B2
:10429000D0F82002FDF7E5FD18B1022803D0022076
:1042A00008BD0020FCE70120FAE7D0F8203211F029
:1042B000800F08D101F07F01C1EBC1018A001344D6
:1042C00093F8FA01704701F07F01C1EBC1018A0048
:1042D000134493F83A00704708B5D0F82002FDF770
:1042E000BDFC18B1022803D0022008BD0020FCE765
:1042F0000120FAE708B5D0F82002FDF756FD18B105
:10430000022803D0022008BD0020FCE70120FAE7C4
:1043100008B5D0F82002FDF712FD18B1022803D02D
:10432000022008BD0020FCE70120FAE708B5D0F81C
:104330002002FDF731FD08BD12230B8000487047B5
:104340002C01002004230B8000487047400100200E
:1043500008B50A4628B105490548FFF7D4FA0348CD
:1043600008BD02490248FFF7CEFAF8E7CC18002052
:10437000C44D000810B5044C0A4621460348FFF717
:10438000C2FA204610BD00BFCC180020DC4D00084A
:1043900008B50A4628B105490548FFF7B4FA0348AD
:1043A00008BD02490248FFF7AEFAF8E7CC18002032
:1043B000F04D000808B50A4628B105490548FFF741
:1043C000A2FA034808BD02490248FFF79CFAF8E741
:1043D000CC180020004E000808B50A4628B105494F
:1043E0000548FFF790FA034808BD02490248FFF765
:1043F0008AFAF8E7CC1800200C4E0008DFF834D019
:10440000002103E00C4B5B58435004310B480C4B2C
:1044100042189A42F6D30B4A02E0002342F8043BCA
:10442000094B9A42F9D3FFF761FD00F011F8FFF74D
:1044300039FC704700000220604E00080000002098
:10444000C4010020C4010020D01A0020FEE70000B3
:1044500070B50D4E0D4CA41BA4100025A54209D12A
:104460000B4E0C4C00F042FCA41BA4100025A542EE
:1044700005D170BD56F8253098470135EEE756F85E
:10448000253098470135F2E7584E0008584E00088D
:10449000584E00085C4E0008024B0146186800F0B8
:1044A00059B800BF60010020024B0146186800F0B7
:1044B00003B800BF6001002038B50546002945D08B
:1044C00051F8043C0C1F002BB8BFE41800F0D4F8DE
:1044D0001F4A1368104633B9636014602846BDE86C
:1044E000384000F0CAB8A3420CD921686218934240
:1044F00004BF1A685B68636004BF521822600460DE
:10450000ECE713465A680AB1A242FAD9196858185A
:10451000A0420BD120680144581882421960DDD1B5
:10452000106852685A6001441960D7E702D90C2319
:104530002B60D3E7206821188A4204BF11685268B3
:10454000626004BF091821605C60C7E738BD00BF26
:10455000E401002070B5CD1C25F0030508350C2DB5
:1045600038BF0C25002D064601DBA94203D90C23D8
:104570003360002070BD00F07FF8214A14682146A6
:1045800091B9204C23681BB9304600F03DF82060FB
:104590002946304600F038F8431C24D10C23336000
:1045A000304600F06AF8E4E70B685B1B18D40B2B6D
:1045B0000FD90B60CD50CC18304600F05EF804F1F6
:1045C0000B00231D20F00700C31AD3D05A42E2503B
:1045D000D0E78C424B6816BF636013600C46EBE774
:1045E0000C464968CCE7C41C24F00304A04205D063
:1045F000211A304600F008F80130CFD02560DBE703
:10460000E4010020E801002038B5064C00230546EF
:104610000846236000F05CFB431C02D1236803B111
:104620002B6038BDCC1A00200EB400B59CB01DAB79
:10463000029006906FF000410948079104910949E2
:1046400053F8042B05910068019302A900F070F85B
:10465000029B00221A701CB05DF804EB03B0704797
:10466000600100200802FFFF034611F8012B03F848
:10467000012B002AF9D17047704770472DE9F047A8
:104680008E689E4282460C469046994637D88A8963
:1046900012F4906F31D0256809696F1A6569022399
:1046A00005EB450595FBF3F509F101033B449D42FC
:1046B00038BF1D46530530D52946FFF74BFF064648
:1046C00050B90C23CAF80030A38943F04003A381FA
:1046D0004FF0FF30BDE8F0873A46216900F0A6FAB6
:1046E000A38923F4906343F08003A381266165616D
:1046F0003E44ED1B2660A5604E464E4500D94E4611
:1047000032464146206800F09CFAA3689B1BA360D8
:1047100023681E4426600020DCE72A4600F0AAFA3F
:1047200006460028E2D121695046FFF7C5FEC8E7DA
:104730002DE9F04F9DB0804603938B891D060C46F2
:1047400016460FD50B696BB94021FFF703FF2060B8
:10475000206128B90C23C8F800304FF0FF30C7E0C3
:10476000402363610023099320238DF829303023EF
:104770008DF82A304FF0010B37463D4615F8013BC6
:104780000BB1252B3ED1B7EB060A0BD05346324670
:1047900021464046FFF772FF013000F0A480099BDC
:1047A000534409933B78002B00F09D8000234FF089
:1047B000FF32CDE90523049307938DF853301A9304
:1047C0002F46052217F8011B4F48FBF799FE049B63
:1047D000D0B9D90644BF20228DF853201A0744BF10
:1047E0002B228DF853202A782A2A15D0079A2F4693
:1047F00000200A25394611F8013B303B092B4DD9E1
:10480000B8B10FE02F46B8E73F4A801A0BFA00F024
:10481000184304903D46D3E7039A111D1268039193
:10482000002A01DB079204E0524243F002030792A0
:1048300004933B782E2B0CD17B782A2B33D1039B0E
:104840001A1D1B680392002BB8BF4FF0FF330237CD
:1048500005932E4D397803222846FBF751FE38B1D7
:104860004023401B03FA00F0049B034301370493E9
:10487000397827488DF8281006227E1CFBF740FE69
:10488000002838D0234B13BB039B073323F00703C7
:1048900008330393099B4B4409936DE705FB0232F0
:1048A00001200F46A6E700230137059319460A2584
:1048B000384610F8012B303A092A03D9002BC8D00A
:1048C0000591C6E705FB012101230746F0E703AB8D
:1048D00000932246104B04A94046AFF30080B0F18C
:1048E000FF3F8146D6D1A3895B063FF536AF0998D5
:1048F0001DB0BDE8F08F03AB00932246064B04A920
:10490000404600F081F8EAE71C4E0008224E0008FD
:10491000264E0008000000007D4600082DE9F04703
:1049200091461F468A680B69DDF820809342B8BF24
:104930001346C9F8003091F8432006460C4612B1E0
:104940000133C9F800302368990642BFD9F8003016
:104950000233C9F80030256815F0060507D104F1C7
:10496000190AE368D9F800209B1AAB4228DC94F8B6
:1049700043302268003318BF012392062DD404F17E
:10498000430239463046C047013020D02368E568ED
:10499000D9F8002003F00603042B08BFAD1AA36862
:1049A00022690CBF25EAE57500259342C4BF9B1A16
:1049B000ED184FF000091A344D451AD1002008E0D7
:1049C0000123524639463046C047013003D14FF0EB
:1049D000FF30BDE8F0870135C3E7E1185A1C3020ED
:1049E00081F84300224494F8451082F843100233C2
:1049F000C5E70123224639463046C0470130E6D09C
:104A000009F10109D8E700002DE9F04301F1430C59
:104A10000C46097E85B06E291746064698460C9AC4
:104A200000F0B38022D8632936D00AD8002900F0DC
:104A3000B980582900F0838004F1420584F84210BF
:104A400032E0642901D06929F6D12068136805068F
:104A500003F104012AD51B681160002B03DA2D2213
:104A60005B4284F843206F480A2239E0732900F042
:104A70009D8008D86F2920D07029DDD1236843F0AC
:104A80002003236003E0752917D07829D4D1782337
:104A900084F84530644855E01368191D1B6811609F
:104AA00004F1420584F8423001238CE01B68116058
:104AB00010F0400F18BF1BB2CFE713682568181D10
:104AC0001060280601D51B6802E06806FBD51B882C
:104AD00054486F2914BF0A220822002184F8431089
:104AE0006568A560002DC0F29580216821F0040161
:104AF0002160002B3DD1002D40F08E806546082AB4
:104B00000BD12368DB0708D5236962689A42DEBFB0
:104B1000302305F8013C05F1FF35ACEB05032361BB
:104B2000CDF800803B4603AA21463046FFF7F6FE4B
:104B300001304DD14FF0FF3005B0BDE8F08339486A
:104B400084F84510136821681D1D1B6815600A064E
:104B50000BD5CA0744BF41F0200121601BB9226870
:104B600022F0200222601022B7E74D0648BF9BB218
:104B7000EFE76546B3FBF2F102FB1133C35C05F8C6
:104B8000013D0B460029F5D1B9E713682568616935
:104B9000181D106028061B6801D5196002E06A061E
:104BA000FBD51980002323616546B9E71368191DF9
:104BB00011601D68626800212846FBF7A1FC08B15E
:104BC000401B606063682361002384F84330A7E7DB
:104BD00023692A4639463046C0470130AAD02368A7
:104BE0009B0713D4E068039B9842B8BF1846A3E71D
:104BF00001234A4639463046C04701309AD0013534
:104C0000E368039A9B1AAB42F2DCEBE7002504F160
:104C10001909F5E7002BACD1037884F8423004F190
:104C200042056CE72D4E00083E4E000810B5431EAD
:104C30000A44914200D110BD11F8014B03F8014F15
:104C4000F7E7884210B501EB020307D8421E9942EC
:104C50000AD011F8014B02F8014FF8E78342F5D969
:104C60008118D21AD34200D110BD13F8014D01F8BA
:104C7000014DF7E7F8B5074614460E4621B911462F
:104C8000BDE8F840FFF766BC22B9FFF715FC2546E2
:104C90002846F8BD00F014F8A0420FD2214638464D
:104CA000FFF758FC05460028F2D031462246FFF7B0
:104CB000BDFF31463846FFF7FFFBE9E73546E7E73A
:104CC00051F8043C181F002BBCBF0B58C01870478C
:104CD000044A05491368002B08BF0B4618441060AE
:104CE00018467047EC010020D01A0020F8B500BF2C
:104CF000F8BC08BC9E467047F8B500BFF8BC08BCBD
:044D00009E46704714
:104D04000006101600061016000000000000000047
:104D1400010203040607080900000000010203045D
:104D24000A0A0A4144433109414443320D0A00004E
:104D340025640925640D0A002E2E2F5372632F6DEE
:104D440061696E2E630000004EC3AD76656C204130
:104D54006C746F206E6F204441430A004EC3AD76DD
:104D6400656C20426169786F206E6F204441430A6C
:104D7400000000002E2E2F5372632F73746D333294
:104D8400663478785F68616C5F6D73702E630000C1
:104D94006C6569747572610A00000000616C746F5F
:104DA4000A000000626169786F0A00002E2E2F53FA
:104DB40072632F757362645F636F6E662E630000A7
:104DC40053544D3332205669727475616C20436FAD
:104DD4006D506F727400000053544D6963726F65B7
:104DE4006C656374726F6E696373000030303030C9
:104DF4003030303030303141000000004344432033
:104E0400436F6E666967000043444320496E7465CE
:104E14007266616365000000232D302B2000686CEE
:104E24004C006566674546470030313233343536C9
:104E34003738394142434445460030313233343502
:0C4E44003637383961626364656600002F
:084E5000B0B3FF7F0100000078
:044E5800B501000898
:044E5C0091010008B8
:104E6000010000001000000009024300020100C020
:104E700032090400000102020100052400100105AE
:104E80002401000104240202052406000107058212
:104E90000308001009040100020A000000070501D0
:104EA00002400000070581024000000009024300A3
:104EB000020100C0320904000001020201000524C1
:104EC000001001052401000104240202052406004B
:104ED000010705820308001009040100020A00000E
:104EE0000007050102000200070581020002000020
:104EF00009074300020104C0320904000001020254
:104F0000010005240010010524010001042402020F
:104F10000524060001070582030800FF09040100BB
:104F2000020A000000070501024000000705810297
:104F3000400000000A0600020000004001000000DE
:104F4000A73000086D300008F92F000800000000AD
:104F50006F2F00085D2F0008C92F00080000000017
:104F60000000000000000000A52F0008992F000895
:104F7000B12F0008BD2F00080024F400793F00087D
:104F8000713F0008753F00083D4000081201000213
:104F900002020040830440570002010203010000A6
:104FA0000403090439430008454300087543000819
:104FB0005143000891430008B5430008D943000855
:104FC000640100200000000000000000000000005C
:104FD00000000000000000000000000000000000D1
:104FE00000000000000000000000000000000000C1
:104FF00000000000000000000000000000000000B1
:1050000000000000000000000000000000000000A0
:105010000000000000000000000000000000000090
:04502000000000008C
:04000005080043FDAF
:00000001FF
